:100000000C949F020C94BC020C94D7020C94BC027A
:100010000C94BC020C94BC020C94BC020C94BC0268
:100020000C94BC020C94BC020C94DF230C94BC0214
:100030000C94BC020C94BC020C94BC020C94BC0248
:100040000C94BC020C94BC020C94BC020C94BC0238
:100050000C94BC02E000E200E3000000000000009D
:1000600000000000000000000000E600E4004B007B
:100070000000E1001D001B00060019000500000043
:100080000000000000003800E500000046004C00C1
:10009000390004001600070009000A0000000000F3
:1000A000000000003300340000002800A6002B00F0
:1000B00014001A00080015001700000000000000DE
:1000C000000013002F0030003100000035001E003A
:1000D0001F0020002100220000000000000000009E
:1000E00027002D002E0000002A00290000003A0001
:1000F0003B003C003D00000000000000000000004C
:1001000042004300440045003E0023001C000B0059
:1001100011002C004F005100520050003F002400FD
:1001200018000D0010004100260012000F003700DB
:10013000E7004E004D004A000000400025000C0082
:100140000E00360001000100010000000000000068
:10015000000000000000000000000100010001009C
:100160000000010001000100010001000100000089
:10017000000000000000010001000000010001007B
:100180000100010001000100010001000000000069
:1001900000000000010001000000010001000578DE
:1001A000010001000100010001000000000000004A
:1001B0000000010001000100010000000278047845
:1001C000037800770100010000000000000000003B
:1001D00001000100010000000100207800002178EA
:1001E0002378257827780000000000000000000038
:1001F00001000100AA00A90024780100010001000B
:100200000100010001000100010001002678010049
:1002100001000100010001000100010001000100D6
:100220000100010001000100000028780100010028
:10023000010001001E0F0500047F3F1F643214649B
:100240003214783C1E1E140A052223252628292A4A
:100250002C2D2F3032333536383A3B3D3E40424329
:100260004547494A4C4E5051535557595A5C5E6068
:1002700062646668696B6D6F71737577797B7D7F7A
:1002800081838587898A8C8E90929496989A9C9E79
:100290009FA1A3A5A7A8AAACAEAFB1B3B4B6B8B995
:1002A000BBBCBEBFC1C2C3C5C6C7C9CACBCCCDCEFD
:1002B000D0D1D2D2D3D4D5D6D7D7D8D9D9DADADBE0
:1002C000DBDBDCDCDCDCDCDDDDDDDDDCDCDCDCDC6C
:1002D000DBDBDBDADAD9D9D8D7D7D6D5D4D3D2D2AB
:1002E000D1D0CECDCCCBCAC9C7C6C5C3C2C1BFBE93
:1002F000BCBBB9B8B6B4B3B1AFAEACAAA8A7A5A3FE
:10030000A19F9E9C9A98969492908E8C8A898785BC
:1003100083817F7D7B79777573716F6D6B6968669B
:100320006462605E5C5A5957555351504E4C4A496D
:1003300047454342403E3D3B3A3836353332302F15
:100340002D2C2A292826252322FFAA7F554000018B
:100350000101010101010101020202020202020285
:100360000203030303030303030404040404040457
:10037000050505050506060606060707070707081B
:10038000080808090909090A0A0A0B0B0B0C0C0CCE
:100390000D0D0D0E0E0E0F0F0F1010111111121268
:1003A00013131414151516161717181819191A1AE5
:1003B0001B1B1C1D1D1E1E1F202021222223242446
:1003C000252626272829292A2B2C2D2D2E2F303182
:1003D0003232333435363738393A3B3C3D3E3F4094
:1003E0004142434445464748494A4C4D4E4F50517F
:1003F0005354555658595A5B5D5E5F616264656639
:1004000068696B6C6D6F7072737577787A7B7D7EBF
:100410008082838587888A8C8E8F91939596989A0F
:100420009C9EA0A2A3A5A7A9ABADAFB1B3B5B7BA27
:10043000BCBEC0C2C4C6C9CBCDCFD1D4D6D8DBDDFB
:10044000DFE2E4E7E9EBEEF0F3F5F8FAFDFF09028D
:100450003B00020100A0FA090400000103010100B1
:100460000921010100012244000705810308000160
:10047000090401000103000000092101010001221B
:10048000320007058303080001120110010000007B
:1004900008A0202D420001010200011A0359004D5D
:1004A0000044003700350020002F0020004D00548C
:1004B000003800340000000A0359004D0044004B8E
:1004C0000000000403090405010980A10185031946
:1004D000012AB700150126B700950175108100C0EB
:1004E000050C0901A101850419012AA002150126A4
:1004F000A002950175108100C005010906A1010542
:100500000719E029E7150025019508750181029575
:1005100001750881030507190029FF150026FF0052
:1005200095067508810005081901290515002501A2
:10053000950575019102950175039103C000112481
:100540001FBECFE5D8E0DEBFCDBF11E0A0E6B0E032
:10055000EEE8F4E502C005900D92A634B107D9F794
:1005600023E0A6E4B1E001C01D92A034B207E1F798
:100570000E949D130C94052A0C940000A82FB92FFB
:1005800080E090E041E050EA609530E009C02D91B4
:1005900082279795879510F084279527305EC8F3BA
:1005A0006F5FA8F30895EADF8D939D930895CF932D
:1005B000CFB7CF93C395839BE9F7839B0EC0839BF3
:1005C0000CC0839B0AC0839B08C0839B06C0C0915C
:1005D0001703C395C0931703A6C0DF93C0911603FA
:1005E000DD27C25EDC4F839B02C0DF91E6CF2F93F5
:1005F0000F931F9300B32FEF03FB20F94F933F930B
:1006000010B34FEF012703FB21F93BE031C04E7FD0
:10061000012F10B3216028C0102F4D7F22600000F1
:1006200000B329C04B7F2460012F000010B32BC002
:1006300010B3477F28602AC04F7E00B320612CC0D2
:100640004F7D10B320622FC04F7B00B3206432C0B7
:10065000422700B349934FEF0000102713FB20F906
:1006600010B31C70C9F1297F91F2012703FB21F916
:1006700000B3237F89F2315058F1102713FB22F980
:1006800010B3277E79F2012703FB23F92F7C81F237
:1006900000B3102713FB24F92F7971F200C010B3B7
:1006A000012703FB25F92F7359F200C000B310276F
:1006B00013FB26F9223040F200C010B3012703FBE0
:1006C00027F9243028F64F77206810B30000F9CFBF
:1006D00010E81ABF00271CC03B503195C31BD04007
:1006E00010E81ABF0881033C11F10B3401F120918D
:1006F00013031981110F1213EDCF4A81441F0936DC
:1007000069F10D3211F0013E29F74F7009F0042F05
:1007100000931C033F914F911F910F912F91DF91F7
:10072000CAB7C7FD47CFCF91CFBFCF9118952091C2
:100730001C03222379F310911A03112309F044C0FA
:1007400034300AF443C030931A03209315031091F8
:1007500016033BE0311B3093160338C000911A0397
:10076000013094F50AE54F7049F43091880034FD6A
:100770002FC000938800C0EFD2E02EC0433059F064
:10078000443091F03091FB0234FD22C00093FB0213
:10079000CCEFD2E021C03091340334FD19C0009376
:1007A0003403C5E3D3E018C03091070334FD10C013
:1007B00000930703C8E0D3E00FC02795A8F4515079
:1007C000A9F4220F0000F9CF4AE503C042ED01C0B1
:1007D000432FC4E1D0E032E011B31C60939A11BB07
:1007E00002B320E41CE05F93012756E002BB27958B
:1007F00020F4515021F4220FF9CF012756E00000D8
:100800003B5A02BBD0F2279528F4515029F4220F0D
:100810000000F9CF012756E0279502BB20F4515084
:1008200021F4220FF9CF012756E02991332302BB8F
:1008300021F6037F10911B03110FC651D04002BB5C
:1008400011F01093130310E81ABF086011B3137F5F
:10085000402F437F5F9100C000C002BB11BB42BB71
:1008600059CF8230B8F46830A8F44F3098F450E093
:100870009FE0699F400D511D1124FA0198E7899F5F
:10088000E00DF11D1124EE0FFF1FEC5AFF4F859173
:100890009491089581E090E008950E9431040895B4
:1008A00081E008950E94500408950E945004089524
:1008B00081E008950E94500408950E945004089514
:1008C0000E945D040895089508950E9463040895A8
:1008D00008950895A6E0B0E0E0E7F4E00C949C28C9
:1008E00049835A839E8330914D0189819A813111C8
:1008F0001AC03E81332399F0222389F00E94530AC3
:10090000182F682F89819A810E942F0A69817A8124
:10091000812F0E9439112696E3E00C94B8280E949A
:10092000410A182FF3CF0E94530A69817A81F1CFCF
:10093000FC01262F408151816281738184819581E0
:100940000E946A040895CF93DF93EC0161E00E9456
:100950009804BE010E945204882359F061E0CE0140
:100960000E949804BE010E9455048170DF91CF91CE
:10097000089580E0FACF0F931F93CF93DF93EC019C
:1009800060E00E9498048C01BE010E946404BE01D4
:10099000C8010E946504DF91CF911F910F910895C6
:1009A00021E030E0A90102C0440F551F8A95E2F70B
:1009B000CA010E9451090895CF93C82F81E090E0A9
:1009C0000C2E02C0880F991F0A94E2F70E947B0E3A
:1009D0008C2F0E94D004CF91089581E008950E9449
:1009E000ED0408950E94ED040895CF93C82F0E944E
:1009F00004098C2F0E94EF048C2F0E94F2042FEB2D
:100A000087E299E0215080409040E1F700C000006B
:100A1000CF91089581E00E94F5040E940324089577
:100A200080E00E94F5040E9411240895A2E0B0E045
:100A3000ECE1F5E00C949B288C0161E00E949804A5
:100A40009A838983F801858181110E94131BB80163
:100A5000CE0101960E94F91D811105C080E0229609
:100A6000E4E00C94B728B80189819A810E945A0465
:100A70008823A1F3B80189819A810E9460048823A8
:100A800069F3B80189819A810E94F91B882331F3A7
:100A9000B80189819A810E9437228823F9F2B8012E
:100AA00089819A810E94F7208823C1F2B801898147
:100AB0009A810E94CF1D882389F2B80189819A8189
:100AC0000E94B713882351F2B80189819A810E944C
:100AD0003D12882319F2F8018581882371F08981FC
:100AE0009A818330FCE79F07E9F058F48115ECE721
:100AF0009E07A9F081309C47B9F0C8010E945804B4
:100B0000AECF8B352CE79207A9F08C35ECE79E072A
:100B100071F08A359C4789F70E94560EEECF0E94ED
:100B20000A059CCF0E945E0E0E94100597CF0E947E
:100B30004C0EE3CF0E945A0EE0CF0E9468040E9440
:100B4000872380E00E94D81B0E94CD0508950E9453
:100B5000281B0E94D1050E9469040E948C230895DD
:100B600081E0089581FF02C0919A089591980895B7
:100B7000CF93DF93D82F0E94B005C82F882319F098
:100B80008D2F0E94B2058C2FDF91CF910895899A05
:100B9000919808950E94B805089580E00E94CA05C2
:100BA00008950E9480220E94CA050895CF930E9452
:100BB0008022C82F809148018C1779F0C09348019A
:100BC0000E94D3236093490170934A0180934B01A3
:100BD00090934C018C2F0E94CA05CF910895ADE0EF
:100BE000B0E0E5EFF5E00C949D28488759876A87C7
:100BF0007B878C879D8791110E94A00D1F8286E0C4
:100C0000FE013896DE01119601900D928A95E1F76A
:100C10008D8181110DC029813A814B815C816D816B
:100C20007E818F810E94EA0C2D96E2E00C94B92817
:100C3000CE0101960E94A3048111EDCFF5CFFC01F6
:100C40002481213021F4808191810E94850A0895B8
:100C5000CF93C82F8823C1F08CEF8C0F813AB0F46A
:100C60008C2F0E94981D81110FC08C2F0E94F7229B
:100C7000882329F08C2F0E943A230E94FB0D8C2F91
:100C80000E9432230E94FB0DCF91089580E28C0FC9
:100C9000883048F4C77081E001C0880FCA95EAF730
:100CA0000E94830DEFCFEBE5EC0FE33040F4F0E072
:100CB000E154FF4F808190E00E949822E5CFC85A0E
:100CC000CB3110F7EC2FF0E0EE0FFF1FE757FF4F8F
:100CD000808191810E94BD22D7CF882339F19CEF7A
:100CE000980F913A28F40E943A230E94FB0D089530
:100CF00090E2980F983050F4877091E001C0990FFE
:100D00008A95EAF7892F0E94890DEFCF9BE5980F0E
:100D1000933028F490E080E00E9498220895885A49
:100D20008B3120F490E080E00E94BD2208951F9353
:100D3000CF93DF93182FEB010E942806209739F4F8
:100D4000812F0E946D06DF91CF911F91089587EB4F
:100D50009BE00197F1F700C000002197EFCF70E012
:100D600060E0893311F460E570E00E949706089511
:100D7000882321F00E94830D0E94FB0D0895882393
:100D800021F00E94890D0E94FB0D0895B0E0A0E0C3
:100D9000ECECF6E00C9496286C01D62FC72FFC01E2
:100DA0001581068102950F700E94790DE82E882327
:100DB000F9F0E12E1123E1F08C2F807F803461F077
:100DC00080E28D0F883008F18C2F807E803221F4F4
:100DD000D230D8F00023C9F08091920282FF15C072
:100DE00082E00E94200E0E94790D91E0E82EE92613
:100DF000BC2EB2949FE0B922FBE0FB15B8F1EB2DBD
:100E0000F0E0E95FF54D0C945628E12CF1CF0C2F62
:100E10000F70C07F11F00295007F112399F000231D
:100E200059F080E28D0F883010F0D11107C0802F6B
:100E30000E94830D0E94FB0D8D2F48C0802F0E94C1
:100E4000930DF8CF8D2F0E946D06002379F080E27C
:100E50008D0F883010F0D11104C0802F0E94890DB1
:100E600003C0802F0E94990D0E94FB0DEB2DE850CE
:100E7000FF0B349708F066C10E9480220E94CA05C9
:100E8000CDB7DEB7E9E00C94B2282C2F2F70F22EEC
:100E9000C07FC03219F0F29480EFF822DD2341F0D8
:100EA000D130C9F1112309F443C00023E9F0C4CFC4
:100EB0008091920282FD14C0112359F0FF2029F085
:100EC0008F2D0E94830D0E94FB0D80E00E9428065A
:100ED000CDCF80E00E946D06FF2041F28F2DBECF66
:100EE000112369F0011104C08F2D0E94B806BECFF6
:100EF000013009F0BBCF8F2D0E94B70DB7CF011184
:100F0000B5CF8F2D0E94BF068F2D0E94C30D8F2D50
:100F10000E94A70DABCF112321F0063008F0A6CF19
:100F2000E3CF053008F0A2CF8F2D0E94BF069ECFE1
:100F30000023D1F3D93349F43FEF8DEE92E03150E5
:100F400080409040E1F700C000008D2F0E946D06A8
:100F50008DCF8C2F86958695837069F0813009F04E
:100F600085CF8D2F9C2F9370111102C080E090E0EF
:100F70000E94BD227BCF8D2F9C2F9370111102C038
:100F800080E090E00E94982271CF8C2F8370A1F5B1
:100F900011116CCF4D2F429546954770440F440F69
:100FA0002D2F2F7030E0042E02C0220F331F0A9421
:100FB000E2F790E080E0D4FF09C08FE090E002C04B
:100FC000880F991F4A95E2F780959095C695C6952A
:100FD000C370822B932BC23049F058F4C13019F002
:100FE0000E945D0943CF0E94540940CF0E946609C8
:100FF0003DCF0E9451093ACF8695112311F08C2FD5
:101000008170882309F432CF4D2F42954695477061
:10101000440F440F2D2F2F7030E0042E02C0220FFA
:10102000331F0A94E2F790E080E0D4FF09C08FE01C
:1010300090E002C0880F991F4A95E2F7809590953D
:10104000C695C695C370822B932BC23049F058F4D5
:10105000C13019F00E94C80909CF0E94BF0906CF0C
:101060000E94D10903CF0E94750900CFCF701123D0
:1010700029F08C2F0E948D098D2F37CF8D2F0E9444
:10108000BF068C2F0E949D09F1CED23F41F160F442
:10109000D03FB9F0D13F81F0112309F443C00111D1
:1010A000CBCE8C2F8F711FC0D33F01F1D43FA1F75E
:1010B0008091920282FD24C08C2F8F71112311F335
:1010C00012C0112341F0053008F0D0CE8C2F8F7163
:1010D0000E94AF09CBCE063008F0C8CEF7CF8C2FD8
:1010E0008F711111CFCF0E948D09C0CE112329F02D
:1010F0008C2F8F710E948109B9CE0E947C09B6CED7
:10110000112331F063E08C2F8F710E94020EAECE5E
:1011100081E00E94200E023008F4A8CE82E00E94F6
:10112000200EA4CE002359F0D93309F00ECFEFEFF3
:10113000FDEE22E0E150F0402040E1F704CF8C2F9B
:101140008F71A0CFEE2009F49BCE0E94750D80FD1B
:1011500097CEF60115820E946F0D0E948D09C6017F
:101160000E94CF080E946F0D0E949D0989CE0F93A7
:101170001F93CF93DF93EC01688179818D810E9469
:10118000900A8C010E94DA090E945009B801CE0130
:101190000E94C606DF91CF911F910F910895CF93C2
:1011A000DF93EC018C81882399F0CE010E94160513
:1011B000811111C00E94790D882351F08D818823FF
:1011C00039F08091920282FF03C082E00E94200EDB
:1011D000DF91CF910895CE010E94B708CE010E9401
:1011E000BB04F6CF90E080E00E94982290E080E07F
:1011F0000E94BD220E94A00D0E94FB0D08950E9436
:1012000042230E94F20808950E94900D0E94FF0858
:10121000089592959F70963091F058F4925F9F7068
:10122000923058F4803F19F030F4883E30F481E079
:1012300008959A5FF4CF843FD1F380E00895883E0B
:10124000B0F3813FD1F7F3CFFC012481222339F0A1
:10125000808191810E94850A0E940909089580E099
:101260000895A6E0B0E0E7E3F9E00C949D28269607
:10127000E2E00C94B928A7E0B0E0E1E4F9E00C94D6
:101280009D282796E2E00C94B92808950E9445090C
:1012900008950E94460990938D0180938C010895D2
:1012A00008950E944909089520918C0130918D0183
:1012B000822B932B0E944909089520918C01309133
:1012C0008D01822393230E944909089520918C0166
:1012D00030918D01822793270E94490908950E9429
:1012E000450908950E946F0908950E94720990931C
:1012F0008B0180938A01089590E080E00E94750937
:10130000089521E030E0A90102C0440F551F8A95DD
:10131000E2F7CA010E947509089521E030E002C099
:10132000220F331F8A95E2F780918A0190918B01F9
:10133000822B932B0E947509089521E030E002C0B2
:10134000220F331F8A95E2F72095309580918A010C
:1013500090918B01822393230E947509089521E0C7
:1013600030E002C0220F331F8A95E2F780918A0194
:1013700090918B01822793270E94750908952091EF
:101380008A0130918B01822B932B0E94750908955D
:1013900020918A0130918B01822393230E94750949
:1013A000089520918A0130918B01822793270E9412
:1013B000750908950895262F277091E001C0990FAF
:1013C0002A95EAF723E0769567952A95E1F7660F67
:1013D000771F660F771FFA01E60FF71F50E040E016
:1013E000682F70E08191DF0111979B01042E02C0EC
:1013F000369527950A94E2F721702195282729230D
:1014000028272C934F5F5F4F4430510559F70895BB
:10141000A82FA77023E0969587952A95E1F7880F66
:10142000991F880F991FFB01E80FF91F50E040E05A
:1014300080E0219130E00A2E02C0369527950A946B
:10144000E2F721703327042E01C0220F0A94EAF735
:10145000822B4F5F5F4F4430510559F70895262F77
:10146000983070F48F3060F4682F70E08FE0989FB0
:10147000600D711D11244EE451E0822F0E94DB09A2
:101480000895292F983068F48F3058F490E06EE476
:1014900071E03FE0239F800D911D11240E94080AF6
:1014A000089580E00895B0E0A0E0E9E5FAE00C944A
:1014B00096287C0100918A0110918B0180918C010A
:1014C00090918D01082B192BCFE0D0E0CC24C39450
:1014D000D12CBC2EC6010C2E02C0880F991F0A9475
:1014E000E2F780239123892B49F4219790F7B12CBF
:1014F0008B2DCDB7DEB7E9E00C94B228B7018C2F65
:101500000E944511019789F3F3CFCF93DF93EC014C
:101510000E94530ABE010E944511DF91CF910895A8
:101520001F93CF93DF93EB0190914D01992339F0F5
:10153000CB010E94850ADF91CF911F9108958823E6
:1015400069F0CB010E94530A182F682FCE010E9428
:101550002F0ABE01812F0E944511EDCFCB010E94C1
:10156000410A182FF6CF1F93CF93DF93C0918E01BE
:1015700017E080918F018C1304C0DF91CF911F91F0
:101580000895D0E01C9FF0011D9FF00D1124E0573D
:10159000FE4F208131814281538164817581868132
:1015A0000E943B092196C770E4CF2091C801309179
:1015B000C9014091CA015091CB016091CC01709159
:1015C000CD018091CE010E943B090895CF93DF9316
:1015D0008091CE01807F09F04DC08091CD0188239C
:1015E00009F448C0E0918E0150918F01C091C9016A
:1015F000D091C8016091CA017091CB0147E05E179C
:10160000C9F18E2F90E0E49FF0011124E057FE4FC6
:101610002481222391F1489FF001499FF00D11246C
:10162000DF01A057BE4F11962C9111972C1325C0A6
:101630002C912D1322C015962C91159721111DC0A8
:1016400012962D913C91261B370B283C3105A8F4AE
:101650008091CE018F7080618093CE01EA56FE4F5B
:1016600080818F708061808388EC91E00E94CF0838
:101670000E94B30ADF91CF910895FC013196E77083
:10168000BECF482F20918E0190918F0157E02913F2
:1016900002C080E0089530E0529FF001539FF00DAA
:1016A0001124E057FE4F8181681306C080814813E2
:1016B00003C085818111EECF2F5F3F4F2770E7CFA9
:1016C000A4E1B0E0E6E6FBE00C9493288C0186E010
:1016D000F801DE011F9601900D928A95E1F7F8015D
:1016E0008481E58098ECA92E91E0B92E9091CC01EF
:1016F00091111FC08823D1F0EE20A9F0C8010E94EB
:101700002409F82E882379F087E0F801D5010190AB
:101710000D928A95E1F7C5010E941F060E94E60A14
:101720000E94D50A5FC0C8010E94CF08FF24F3942D
:1017300059C0C080D18082809380F090CD012091EB
:10174000CA013091CB01A401421B530BFF2009F4C5
:10175000F9C0483C510508F0A7C0882309F442C0ED
:101760009091C9018091CE01282F207F09F05CC0A3
:101770009D1116C09091C801C91212C0E1104EC04F
:101780008F7080618093CE010E94D50A88EC91E031
:101790000E94CF088091CE01F8018683F12C22C0EF
:1017A000E1103CC06D2D8C2D0E94410B6D2D8C2DB8
:1017B0000E94410BE82E8111F1CFCF86D88A8F8508
:1017C00098890E94850A292F22952F70243078F459
:1017D0009F702230A8F09923B9F0F8019681907F8C
:1017E00099F4FE2C8F2D6496ECE00C94AF282A5FC0
:1017F0002F70223068F0C8010E94CF08EF2CF1CF83
:10180000992311F0882369F3805E883050F3F3CF79
:10181000803F38F3815F833070F7E3CF8091CE0152
:1018200081608093CE01BACF9D1113C09091C80101
:10183000C9120FC0E1100DC08683C8010E94CF08F5
:1018400087E0F801A8ECB1E001900D928A95E1F7EC
:1018500067CFC8010E942409882309F464CFEE20D1
:1018600009F461CF8091CE01803288F02091C801C7
:101870003091C901398728879B868A869091CC014F
:101880009C871D868E87CE0108960E94CF0887E030
:10189000F801A8ECB1E001900D928A95E1F70E9461
:1018A000E60A0E94D50A42CF9091CE01292F207FCF
:1018B000A1F4682D9A8A898AA6017A899E2D0E94B0
:1018C000310988EC91E00E94CF0887E0F501119280
:1018D0008A95E9F70E94D50A61CF882309F482CF5F
:1018E0008091C9018D1110C08091C801C8120CC02F
:1018F000E1100AC09683C8010E94CF0887E0F50175
:1019000011928A95E9F76ECFC8010E9424098823B5
:1019100009F409CFEE2009F406CF8091CE01803280
:1019200008F4B5CF2091C8013091C9013A832983C9
:101930009C828B829091CC019D831E828F83CE01ED
:101940000196A3CF483C5105B8F5882309F4EECEA3
:10195000FE2CEE2009F4E7CE8091C9018D111EC046
:101960008091C801C8121AC08091CE0180FD0DC0BF
:10197000982F907F51F08683903F09F45ECF982F87
:10198000907F905F8F70892B57CF87E0F801A8EC8C
:10199000B1E001900D928A95E1F724CFC8010E9431
:1019A0002409811174CF8091CE0181608093CE0192
:1019B000C8010E94CF0816CF682D9A8A898AA6018D
:1019C0007A899E2D0E94310987E0F50111928A954E
:1019D000E9F7A6CEAEE0B0E0E0EFFCE00C949C2886
:1019E000288739874A875B876C877D878E87CE01FA
:1019F00008960E94600B8823B1F06C85662341F045
:101A0000288539854A855B857D858E850E943B09C1
:101A100017E080918E0190918F0189133DC02E9621
:101A2000E3E00C94B82887E0FE013896DE011196B9
:101A300001900D928A95E1F78C85882349F32091D6
:101A40008F0130E0C90101968770992740918E017E
:101A50004817190699F097E0929FD001939FB00D17
:101A60001124A057BE4FFE01319601900D929A9518
:101A7000E1F780938F010E94B30ACACF0E94040944
:101A800010928F0110928E0187E0E8ECF1E0DF0107
:101A90001D928A95E9F7BCCF819FC0011124805720
:101AA0009E4F0E94600B882309F4B9CFE0918E010C
:101AB0001E9FF0011124E057FE4F208131814281A9
:101AC00053816481758186810E943B0980918E01DA
:101AD00090E001968770992780938E019ACF80912C
:101AE000CF0186958695869508958091CF01877060
:101AF00008959091CF01977081E009F480E00895F6
:101B00008091DB0108959091DB01892B8093DB01AB
:101B1000089580959091DB0198239093DB010895BF
:101B20001092DB0108959091DA01892B8093DA01FC
:101B3000089580959091DA0198239093DA010895A1
:101B40001092DA01089508950E94A30D08959091CE
:101B5000D001292F282331F0809589238093D0014B
:101B60000E94A40D089508950E94B30D08959091C8
:101B7000D101292F2823281729F0982B9093D101E0
:101B80000E94B40D08959091D101292F282331F09E
:101B9000809589238093D1010E94B40D089580918E
:101BA000D101882329F01092D10180E00E94B40D68
:101BB00008950F931F93CF930091640010916500D7
:101BC000C091DB018091DA01C82B8091D10188237B
:101BD00031F0C82B0E94E22281110E94CF0DF80142
:101BE000C08380916400909165000E948D22CF9106
:101BF0001F910F9108950E94D90D089508950E9494
:101C0000FE0D08959091920292FF11C098E0899F75
:101C100090011124622B6093CF010E948D09809165
:101C2000CF018695869586950E94FF0D08950E94A6
:101C30008D0908951092CF0180E00E94FF0D089554
:101C40009091CF01809589238093CF01282F277011
:101C500069F4891759F09091920292FF07C0869516
:101C6000869586950E949D090E941A0E089590916E
:101C7000920292FB222720F9281769F080FB92F943
:101C80009093920280919102909192020E94860E0E
:101C900082E00E94200E08958091920282FB8827A4
:101CA00080F991E089270E94370E089581E00E9413
:101CB000370E089580E00E94370E08956FEF7FEF92
:101CC00090E080E00E94C329089590E080E00E94A7
:101CD000902921E0853E9E4F09F020E0822F089553
:101CE00082E090E00E948229089583E090E00E94C3
:101CF000822990E00895682F83E090E00E94A62951
:101D0000089584E090E00E9490290895BC0184E049
:101D100090E00E94C3290895AB01BC018FE090E0E0
:101D20000E94B7290895AB01BC0183E190E00E94B5
:101D3000B729089560E070E0CB010E94930E0895EA
:101D400060E070E0CB010E948C0E0E949A0E089514
:101D5000A8E0B0E0EEEAFEE00C949D2865EE7EEF90
:101D600090E080E00E94C32960E082E090E00E9461
:101D7000A62981E090E090938D0180938C010E94D0
:101D80007B0E60E074E184E090E00E94C32960E093
:101D900086E090E00E94A62960E087E090E00E9443
:101DA000A62940E050E0BA0188E090E00E94B729FF
:101DB00060E083E290E00E94A62960E08CE090E081
:101DC0000E94A62960E08DE090E00E94A629198279
:101DD0001A821B821C821D821E821F82188648E086
:101DE00050E067E170E0CE0101960E94962940E044
:101DF00050E0BA018FE190E00E94B7290E94A00E46
:101E00002896E2E00C94B9280E94A80E0895682F45
:101E10008EE090E00E94A6290895A6E0B0E0E3E1FC
:101E2000FFE00C949B280E94C7238C018091DC0169
:101E30009091DD018017910781F019821A820E942A
:101E4000C723682F49815A81792F80E090E00E9452
:101E5000EF051093DD010093DC012696E4E00C947D
:101E6000B7280E94D3236093F2017093F30180930B
:101E7000F4019093F5016093EE017093EF0180936C
:101E8000F0019093F1010895089508950E94440F80
:101E9000089508950E94490F0E94460F08950895DD
:101EA0000E944F0F089508950E94530F0E94500FF3
:101EB00008958BE392E10E94B2130E94450F0E94A5
:101EC0004A0F089581E008950E94620F08950E94CC
:101ED000620F08950895089508950E946A0F0E9460
:101EE0006B0F0E946C0F08950E94650E811102C055
:101EF0000E94040F0E94700E8093F6010E94810ED2
:101F000090939202809391020E94041D0E94750E8C
:101F10000E94510980918A0190918B010E9472095F
:101F200008950E94C0230E9410130E94740F0E9403
:101F3000C7050E94B61C0E94281B0E94331A0E94EB
:101F4000540F0895A6E0B0E0E8EAFFE00C94912871
:101F50000E94640F81110CC00E940D0F0E94141B7F
:101F60000E94B51C0E94D6052696EEE00C94AD2882
:101F70000E9426132EED822E21E0922E640110E0A5
:101F8000F601E190F1906F01812F0E9457121F5FBF
:101F9000183009F44BC0E816F90691F38091F60168
:101FA00081FD0E9460120E94670F782E10E0662467
:101FB0006394812F0E9457127C01F401A190B1908B
:101FC0004F018A159B0561F100E0CC24C394D12C0C
:101FD000AE24BF24C5018C219D21892BC1F077201F
:101FE000B1F009831A830E94C7239C838B836D827F
:101FF00021E0C7018C219D21892B09F420E0498132
:102000005A816B817C818D81922F0E94EF050F5F39
:10201000CC0CDD1C0F30F1F6F4013297F182E08236
:102020001F5F183031F60E94310F98CFE816F9067D
:1020300009F0B4CF91CF1F93CF93DF930E944A1141
:10204000EC01C11580E5D807F0F5C11580E4D8078B
:1020500008F09CC0C03ED10520F5CD3CD10508F06C
:1020600082C0C83AD10578F4C53AD10508F073C0EA
:10207000C130D10519F1209709F1C430D105F0F430
:10208000D0E0C0E01BC0C33CD105D0F7C85AD0E0B7
:10209000CC0FDD1FCE53DF4F0990D881C02DD46403
:1020A0000DC0C11580E2D80708F0D1C0C11581E08C
:1020B000D80708F05AC0C83ED10510F7CE01DF910D
:1020C000CF911F910895C03682E5D80718F5C03426
:1020D00082E5D80708F06BC0C03282E5D80708F067
:1020E0005FC0C11582E5D80708F497C02C2F26954C
:1020F000269580E2289F900111248C2F8370C1E0E7
:10210000D0E002C0CC0FDD1F8A95E2F7C22BD32BA3
:10211000DD68D4CFC03A82E5D80760F4C03882E5E4
:10212000D80708F459C0CF71D0E0DC2FCC27C46F9A
:10213000D06AC4CFC03C82E5D80708F462C0C03E74
:1021400082E5D80708F09CCFDC2FCC27CC27DF71A5
:10215000C06FD06AB3CFC55AD0E0C850DF4FC88136
:10216000D0E0D064ABCFD065A9CF8D2F0E94EC1109
:10217000182FCE0199270E944A11C12FD0E0DC2FE1
:10218000CC27CC27DF71C82BD92B98CFCE0199272C
:102190000E944A11CC27DF70C82BD92BD06A8ECF72
:1021A000CF71D0E0DC2FCC27C16FD06A87CF2C2F26
:1021B00026952695277080E2289F900111248C2F68
:1021C0008370C1E0D0E002C0CC0FDD1F8A95E2F73A
:1021D000C22BD32BDC6872CF2C2F26952695277027
:1021E00080E2289F900111248C2F8370C1E0D0E001
:1021F00002C0CC0FDD1F8A95E2F7C22BD32BDA6821
:102200005DCF8C2F8F710E94EC11C82FD0E0DC2F96
:10221000CC27CC27DF71D06251CF8C2F8F710E94D9
:10222000EC1155E0D695C7955A95E1F7CF70D0E0FF
:10223000DC2FCC27282F30E084FF05C044E0220F9C
:10224000331F4A95E1F7C22BD32BD06937CF8D2F9F
:102250008F710E94EC11182FCE0199270E944A110C
:10226000C12FD0E0DC2FCC27CC27DF71C82BD92B96
:10227000D2CF462F783030F46F3020F4672F0E9491
:102280004D04089590E080E008950E9439110E9465
:102290001B10089582389105B9F1B0F4813391058E
:1022A00009F47DC048F48932910509F46DC08A3281
:1022B000910509F47BC008958533910509F45FC049
:1022C0008933910509F10895833E9105D9F138F4D8
:1022D000803E910529F1823E910579F10895863E6F
:1022E0009105D9F1873E910509F43EC0843E9105E0
:1022F00041F52091920221FF24C08091910284FD3A
:1023000019C087EE90E0089520919102237009F0A2
:102310005AC02091920223FF14C089E290E00895F0
:102320002091910220FD38C03091920230FF09C007
:1023300024FF43C090E080E008952091910222FDA7
:10234000F7CF08952091910222FD3AC03091920278
:1023500030FD39C024FFF5CFEDCF2091910223FF4E
:10236000F0CF24FDE7CFCDCF2091910223FD2EC0E9
:102370003091920231FFEECF84EE90E008952091EB
:10238000910225FFDECFC9CF2091910225FD21C00A
:102390002091920223FFD5CF89E390E0D2CF209104
:1023A000910226FFCECF8AE290E00895209191021B
:1023B00026FFC7CF81E390E0089583EE90E0089573
:1023C00082EE90E0089580EE90E0089586EE90E031
:1023D000089585E390E008959091910292FF10C0D6
:1023E00041E0282F2471243009F040E031E0282F0B
:1023F0002871283009F030E0431711F02CE08227D3
:1024000093FF10C041E0282F2471243109F040E0EF
:1024100031E0282F2871283109F030E0431711F0FE
:102420002CE082273091920230FF10C051E0282F1B
:102430002171213009F050E041E0282F2871283027
:1024400009F040E0541711F029E0822731FF10C055
:1024500041E0282F2171213109F040E031E0282F9F
:102460002871283109F030E0431711F029E0822764
:1024700094FD877E089580E00895CF939C01205EAF
:102480003245C1E02032310538F4FB01C581C1116C
:1024900003C08F710E94DC048C2FCF9108950895A2
:1024A0000E944F12089508950E9453120895E82F34
:1024B000F0E0EE0FFF1FED55FD4F808191810895F3
:1024C000089588E78A95F1F7089500C008950E945D
:1024D00061120895F894E82FE295EF70F0E031A9C9
:1024E000282F2F7081E090E001C0880F2A95EAF72D
:1024F000982F9095932391AB92A9892B82AB7894D6
:1025000008950F931F93CF93DF93CAE0D1E0899191
:102510008F3F11F00E946A1281E0C231D807B9F7EB
:10252000CBEFD0E00AE011E089918F3F11F00E94DB
:102530006A120C171D07C1F7DF91CF911F910F9100
:102540000895AF92BF92DF92EF92FF920F931F9385
:10255000CF93DF938C01D62EC62FD0E0CE01865FBD
:102560009E4F7C01FC0120812F3F09F44CC0F89460
:10257000E22FE295EF70F0E031A92F7081E090E05A
:1025800001C0880F2A95EAF7932F982B91AB92A957
:102590008095892382AB78940E946512EBEFF0E07E
:1025A00041E050E0B12CA12C21912F3FB1F1A22F9D
:1025B000A295AF70B0E0D0968C9190E02F7002C0E1
:1025C000959587952A95E2F780FD27C0CA01A82A2C
:1025D000B92A440F551F81E0EA30F80729F7F701BF
:1025E00080818F3F11F00E946A1261E0A114B10452
:1025F00009F460E08D2D0E946712CC0FDD1FC00F23
:10260000D11FB982A882DF91CF911F910F91FF90C6
:10261000EF90DF90BF90AF90089590E080E0D7CF2B
:102620000E94811280E1E3EAF2E0DF01982F1D921F
:102630009A95E9F7E3E9F2E0DF011D928A95E9F75F
:1026400088E00E9461130E9450120895A0E1B0E05A
:10265000ECE2F3E10C949A288E010F5F1F4F80E1AA
:10266000F80111928A95E9F7F12C6F2DC8010E94AB
:10267000A112F394F8E0FF12F8CF40E150E0B80166
:1026800083E992E00E946C2921E0009709F420E0A0
:10269000892B41F080E1F801A3E9B2E001900D92AD
:1026A0008A95E1F748E063EA72E083E992E00E94EC
:1026B0006213182F0E945412812F6096E5E00C944B
:1026C000B6280895B0E0A0E0E8E6F3E10C9497287E
:1026D0006C017B01042FC22F222379F081E08093CB
:1026E000F9010E94C7239093F8018093F70180E0DD
:1026F000CDB7DEB7E8E00C94B328D091F901DD2323
:10270000B1F38091F7019091F8010E94A4230597FD
:1027100070F310E0000F111FA801B601C7010E945D
:102720006C29892B31F0A801B601C7010E947929D3
:10273000CD2F1092F9018C2FDBCF0E94AE230E9487
:1027400001250E94590F0E9408250E94910F0E94A6
:1027500019250E9427250E9454250E9460250E9469
:102760006D0FF7CF909347018093460108950F9323
:102770001F93CF938C01FB01C581CC2309F447C083
:102780000E94800D8272F801E052F847EB30F105AB
:1027900038F4ED5EF54D0C9456280E94251AC0E0E1
:1027A0008C2FCF911F910F910895882329F00E94BB
:1027B000131AF5CF8823D9F30E94031AF0CF882388
:1027C00029F00E94B016EBCF8823D9F30E94A116FE
:1027D000E6CF882329F00E94D216E1CF8823D9F3CF
:1027E0000E94C116DCCF882329F00E94F416D7CFAF
:1027F0008823D9F30E94E316D2CF882329F00E94C0
:102800007915CDCF8823D9F30E945915C8CFC1E0DF
:10281000C7CFEF92FF920F931F93CF93DF939B014C
:10282000682F31110EC0442329F0E82FF0E0E25B5D
:10283000FC4F6491762F862FCDB7DEB7E6E00C947F
:10284000B528C32FD0E0E82FF0E0442321F0E25B6D
:10285000FC4FE491F0E046E0249FC00111240FEF0B
:1028600010E0B8010E940C28AB01822F90E0880F85
:10287000991F25E5249FB001259F700D1124861B0B
:10288000970B982F990F980FB8016C1B7D0B6E9FBB
:10289000D0016F9FB00D7E9FB00D11248B2F939FA1
:1028A00090011124232F3327B801621B730B6E9FF5
:1028B00090016F9F300D7E9F300D11247801E91A31
:1028C000F108EC9EB001ED9E700DFC9E700D112480
:1028D000672F7727061B170B0E9FE0010F9FD00D68
:1028E0001E9FD00D11247D2F9E2F4230510599F04F
:1028F00048F44115510569F04130510581F07B2FB5
:10290000832F07C04430510569F080F046305105EF
:10291000B1F7692F91CF9B2F8D2F7E2FFACF7E2F6E
:10292000932FF7CF9D2F7B2F8E2FF3CF732F9B2FBE
:10293000FBCF41E00E940914089508950E94991464
:10294000089590916900291B922FE0913F01F09129
:102950004001242F462F682F892F90E00995089574
:10296000CF93DF93762FE901682F842F0E949E1466
:10297000962F672F9E01482F892F0E94A114DF9167
:10298000CF9108958091B302982F9C7F29F4837092
:1029900084608093B30208958C3AE8F38370886A68
:1029A000F8CFB0E0A0E0E7EDF4E10C94972888E0E0
:1029B00090E00E948A296B017C0183E290E00E94F2
:1029C0008229282F30E040E050E060E070E080E0B5
:1029D00090E000E20E94C428B22FA32FF42FE52F2D
:1029E000D62FC72F97018601BC29A12BFE295E2F68
:1029F000532B2B2F3A2F4F2F6D2F7C2FCDB7DEB7B8
:102A0000E8E00C94B328B0E0A0E0E9E0F5E10C9434
:102A1000932849015A016B017C010E94C214840170
:102A2000A4016A2D7B2D88E090E00E94B7299401D3
:102A30004A2D5B2DB601C70100E20E94DF28622FFC
:102A400083E290E00E94A629CDB7DEB7ECE00C94BB
:102A5000AF28E3EBF2E085E0808311828FEF828381
:102A600083831482758125E030E04FEF5FEF60E0F3
:102A7000868197810E94031508959091B702933043
:102A800018F49F5F9093B702882391F02091B302CE
:102A90003091B4024091B5025091B6026091B702F4
:102AA0007091B8028091B9029091BA020E94031508
:102AB000089581E00E943D1508959091B7029923F1
:102AC00019F091509093B702882391F02091B302AE
:102AD0003091B4024091B5025091B6026091B702B4
:102AE0007091B8028091B9029091BA020E940315C8
:102AF000089581E00E945D1508950F931F93CF9371
:102B00008091B30280FF09C0E0914301F09144013C
:102B10000995CF911F910F910895C0916B0000917D
:102B20003F011091400180916C00C81768F78091B7
:102B300069009C2F981B892F20E040E060E090E026
:102B4000F8010995CF5FEFCFEF92FF920F931F939C
:102B5000CF93DF93D82F162F042F8091B30280FFDD
:102B60000CC0C0916B00E0903F01F090400180915B
:102B70006C00C81738F00E947D15CDB7DEB7E6E0CF
:102B80000C94B528809169009C2F981B892F202FC9
:102B9000412F6D2F90E0F7010995CF5FE8CF762F99
:102BA0009091B30290FF0AC0682F842F0E9499145D
:102BB000962F672F482F892F0E94A4150895CF9331
:102BC000DF93EC01EC81F0E0E75BFD4F4491E3EB38
:102BD000F2E0628181810E94CF158C818F5F8C83AE
:102BE000DF91CF910895CF93DF93EC01E3EBF2E017
:102BF000438162818C810E94CF158C818F5F8C8391
:102C0000DF91CF910895CF93DF93EC014091B6020D
:102C10009C81892F817090FD842F692F627091FDB6
:102C2000642F92FF40E00E94A4158C8190E00196F1
:102C3000877099278C83DF91CF910895B0E0A0E051
:102C4000E4E2F6E10C949828D82FF62E142FE22E09
:102C50009091B30290FF2FC0E92FE695E695AE2F35
:102C6000B0E0AE5EBE4F8C91809353029C7F943057
:102C700039F56D2F7F2D842F0E949914962F672F81
:102C8000482F892F0E94A415D093B402F092B50268
:102C90001093B602EE2079F02091B3026091B70252
:102CA0007091B8023D2F4F2D512F8091B902909114
:102CB000BA020E940315CDB7DEB7E7E00C94B42842
:102CC000823019F41091B602DFCF863019F4D0911A
:102CD000B402DACF8930D9F38931B1F6E9518E2FB8
:102CE0008170D82EE695F0E0E75BFC4FC49100E0E0
:102CF00060916D00061718F00E947D15C5CF0C9FDE
:102D0000C001112470E00E940C288D2FD1100CC03E
:102D1000860F20916B00200F3327331F412F6F2D1B
:102D20000E94B0140F5FE4CF861BF3CFE3EBF2E019
:102D30009181282F4381628188E0890F0E941E16AD
:102D4000089581E00E9496160895E3EBF2E09181E8
:102D5000282F4381628188EF890F0E941E160895F3
:102D600081E00E94A5160895E3EBF2E0628121E183
:102D7000620F08F46FEF282F438181810E941E1695
:102D8000089581E00E94B4160895E3EBF2E06281B9
:102D900021E1621B08F460E0282F438181810E94B9
:102DA0001E16089581E00E94C5160895E3EBF2E037
:102DB000438121E1420F08F44FEF282F6281818186
:102DC0000E941E16089581E00E94D6160895E3EB36
:102DD000F2E0438121E1421B08F440E0282F6281A8
:102DE00081810E941E16089581E00E94E7160895D1
:102DF00020E00E941E160895EF92FF921F93CF933A
:102E0000DF93EC0110E0EE24EA94F12C60916D0068
:102E1000161770F00E947D159A818C8190FF1EC05C
:102E20008F5F8C83DF91CF911F91FF90EF9008957A
:102E300020916B00210F3327331F70E0C7010E94E0
:102E40002028962F8C814091B6026091B502199F7F
:102E5000800D11240E94B0141F5FD8CF8150E1CFA4
:102E6000B0E0A0E0E6E3F7E10C949628FC01828153
:102E7000DFEF80FFD1E0C0E000913F011091400101
:102E800080916D00C81798F00E947D158091FB011C
:102E9000D13009F04DC0811102C080916D00815088
:102EA0008093FB01CDB7DEB7E9E00C94B2288091A6
:102EB0006B0090916900891B8C0F20E040E060E07E
:102EC00090E0F801099594E0E92EF12CB12CCC2E7C
:102ED000D12C8091FB018B0D813124F18F70082E54
:102EE000000C990BC816D906B1F420916B002C0D7B
:102EF0003D2D311D8091B6028E9DA0018F9D500DFC
:102F0000112455954795559547956091B502809147
:102F1000B4020E94B014BD0EF1E0EF1AF108C9F638
:102F2000CF5FAECF87FFDBCF90916D00890FD7CFFA
:102F300090E0019660916D0070E00E942028B0CF73
:102F40000F931F93CF93C0916B0000913F0110919D
:102F5000400180916C00C81750F1C0E000913F0122
:102F60001091400160916D00C61770F10E947D15AF
:102F7000209167008091FA01820F8093FA0190916D
:102F80006800920F90936800191654F4082E000CF4
:102F9000990B40916D004150550B841795071CF01B
:102FA000219520936700CF911F910F9108958091F3
:102FB00069009C2F981B892F20E040E060E090E0A2
:102FC000F8010995CF5FC5CFEC2FF0E070E0CF019D
:102FD0000E94202820916B00820F2091FA01022E7E
:102FE000000C330BE217F307A4F020916800022EC7
:102FF000000C330B2E173F0764F0282F30E0409170
:10300000B6026091B5028091B4020E94B014CF5F05
:10301000A9CF90916900891B20E040E060E090E03A
:10302000F8010995F4CFB0E0A0E0E9E1F8E10C94F3
:103030009328EC014C81042F10E09801D8010E94E4
:1030400064289B01AC010E947A284B015C01E0E2FC
:10305000F0E0E01BF10BA5E5B0E0AC019B010E94A4
:103060007A286B017C019F01DF010E945C289B0193
:10307000AC010E9485289B01AC01280D391D4A1D19
:103080005B1DC701B6010E943428F22E822F90E00A
:1030900039E23F1520F143E0249F9001112435953A
:1030A0002795122F109500E085E5E82EEF18809106
:1030B0006D00081720F10E947D159C8181E0992305
:1030C00019F0903219F48FEF8093660080916600BA
:1030D000890F8C83CDB7DEB7ECE00C94AF2825E5E3
:1030E00030E0A901481B590BCA019A01220F331F76
:1030F000280F391F37FFD3CF2F5F3F4FD0CF8E2DF3
:1031000001FD8F2D20916B00200F3327331F412F9E
:103110006091B5020E94B0140F5FC9CF0F931F9347
:10312000CF93DF938C01D0E0C0E090916D009C17AD
:103130001D0609F074F40E947D15F801848190E069
:103140000196817099278483DF91CF911F910F9110
:103150000895F801448120916B002C0F3D2F311D03
:103160006091B5028091B40296959C171D0649F0B6
:1031700044F0442341F04091B6020E94B0142196DD
:10318000D4CF4423C1F340E0F8CFB0E0A0E0EBECB3
:10319000F8E10C948F28FC016280448081E08483F4
:1031A000E9E4F2E07490E8ECF2E0E491C091B60258
:1031B000C695C158D0E0CC0FDD1FCD2FDD27812C67
:1031C00025E0922EAA24AA94B12C55245A94E719EA
:1031D000EE2EF12C80916D00881638F00E947D153E
:1031E000CDB7DEB7E0E10C94AB28C82CD12C82E03F
:1031F000861568F09C9CF0019D9CF00D1124E45014
:10320000FE4F8091B40280838091B502818341108A
:103210001CC09C9CF0019D9CF00D1124E450FE4FBD
:103220001382128220916B002C0D3D2D311D9C9C30
:10323000F0019D9CF00D1124E450FE4F428161810C
:1032400080810E94B0148394C5CF9C9C80019D9C7A
:10325000100D112404501E4FF80183818823F1F0D2
:1032600081508383859DC0011124648170E00E9498
:103270000C28FB01FF27E75BFD4F8491E82FE7193E
:10328000E59DC0011124B7010E940C288091B6026F
:10329000689FB0011124F8017283C4CF0E944F29A6
:1032A000B5010E9420288C179D070CF0BBCFF2E0DF
:1032B000F61598F40E944F29B5010E942028F801C4
:1032C00080830E944F292091B5022695622F70E0DD
:1032D0000E942028280FF80121839C9CF0019D9CCE
:1032E000F00D1124E450FE4F12828091B602893C09
:1032F00058F088EC9C9CF0019D9CF00D1124E4504A
:10330000FE4F848383838ECF8431A0F784E1F2CF94
:10331000E3EBF2E020812E7F2083318142815381D3
:1033200064817581868197810E94031510925402F1
:103330000E947D1508956091B3026695669570E0D0
:103340004BE050E08EE690E00E945F29892B19F453
:1033500081E0809354020E94C72390934D02809392
:103360004C0208959091B30290FF34C09370811184
:1033700032C094609093B302662391F02091B3021F
:103380003091B4024091B5025091B6026091B702FB
:103390007091B8028091B9029091BA020E9403150F
:1033A0006091B3026695669570E04BE050E08EE662
:1033B00090E00E945F29892BB1F01092540281E0C5
:1033C00080934F024091B6026091B5028091B402A1
:1033D0000E94F81608958B3210F0986ACBCF880FB0
:1033E000880F982BC7CF0E949B19E9CF682F909127
:1033F000B3029695969581E0890F8B3208F081E0B3
:103400000E94B219089581E00E94F6190895682F6C
:103410009091B302969596958FEF890F09F48AE201
:103420000E94B219089581E00E94071A089561E090
:103430000E94B2190895E3EBF2E0808181608083FD
:10344000869586950E94171A08958091B30280FF91
:1034500003C00E94881908950E941B1A089560E015
:103460000E94B21908958091520281113CC00E94BD
:10347000D1142093B3023093B4024093B502509319
:10348000B6026093B7027093B8028093B90290932A
:10349000BA022C7FA1F40E9429150E94D114209316
:1034A000B3023093B4024093B5025093B6026093D6
:1034B000B7027093B8028093B9029093BA020E9447
:1034C000C21410925402E0913D01F0913E01099521
:1034D0008091B30280FF04C0869586950E942F1AC2
:1034E00081E08093520208950F931F93CF93DF934F
:1034F000809154028823C1F180915302E091B3027C
:10350000E695E695E81BE0934E02823091F5F0E0F7
:10351000EB5BFD4FE491CE2FD0E00FED15E18091F4
:103520004F02882361F010924F020E94C7239093AC
:103530004D0280934C0210925102109250020E9450
:10354000C723E0914C02F0914D028E1B9F0B8F3FE1
:103550009F4750F4EC0FFD1FF0934D02E0934C0297
:103560008CE492E0F8010995DF91CF911F910F91C2
:103570000895863049F4F0E0EE5BFD4FE491CE2FE4
:10358000D0E003EF15E1CBCF893051F4E695F0E0C0
:10359000E15CFD4FE491CE2FD0E00CEF16E1BFCF00
:1035A0008F3051F4E695F0E0E45CFD4FE491CE2FCE
:1035B000D0E000E317E1B3CF853149F4F0E0E75CF8
:1035C000FD4FE491CE2FD0E000EA17E1A8CFC8E28A
:1035D000D0E003E118E1883109F4A1CF833239F456
:1035E000E7E3F2E0C591D49103E016E198CFC4EF90
:1035F000D1E00EE818E1843209F491CFC0EDD7E0B4
:103600000DE914E1853209F08ACF8E2F63E00E9424
:103610000028E92FF0E0EC5CFD4FE491CE2FD0E0E4
:1036200005EC18E17CCF08950E94741A089586E095
:1036300090E00E9482290895682F86E090E00E9421
:10364000A629089585E68093BB020E941C1B08955D
:103650000E94171B8093BB0282FF0E94221B809155
:10366000BB02883620F0877080668093BB02909101
:10367000BB02892F817090FF04C0892F86958695A3
:1036800086950E94291C08958091BB02982F9695DB
:10369000969596959C3040F49F5F990F990F990FDE
:1036A0008770892B8093BB028091BB0281608093DD
:1036B000BB020E941C1B8091BB0286958695869555
:1036C0000E94291C08958091BB02982F987F79F061
:1036D00088508093BB02887F91E009F490E080914C
:1036E000BB0290FB80F98093BB020E941C1B80915F
:1036F000BB028695869586950E94291C0895809127
:10370000BB0280FD13C081608093BB02813019F43D
:1037100089E08093BB028091BB020E941C1B8091B8
:10372000BB028695869586950E94291C08958091F6
:10373000BB0280FF08C08E7F8093BB020E941C1BCF
:1037400080E00E94291C08958091BB0280FF03C085
:103750000E94971B08950E947F1B08959091BB02C1
:10376000892F8695869586958F5F8F7197708D309E
:10377000E0F4880F880F880F892B8093BB0280911B
:10378000BB02887F91E009F490E08091BB0290FB3E
:1037900080F98093BB020E941C1B8091BB0286951E
:1037A000869586950E94291C08959093BB02E7CFC9
:1037B0008D3008F08CE09091BB029770282F220F7B
:1037C000220F220F922B9093BB02987F21E009F4E5
:1037D00020E09091BB0220FB90F99093BB020E94E5
:1037E000291C08950E94D81B8091BB020E941C1BBB
:1037F00008959C01FB018581882349F12230F8E777
:103800003F07F9F040F42115E8E73E0769F0213061
:10381000384779F00895243098E7390779F058F05F
:103820002530384789F008958CE00E94F21B80E033
:10383000089580E0FACF0E94631BF9CF0E94441BD9
:10384000F6CF0E94A41BF3CF0E94AE1BF0CF81E005
:1038500008958F929F92AF92BF92EF92FF920F9333
:103860001F93CF93DF938D3070F581112DC09FB5DD
:103870009F7D9FBDA6B5B7B5282F30E00E94642874
:103880002CE030E040E050E00E94342889019A01A9
:1038900086B597B56CE070E00E940C286017710740
:1038A000B0F0C80169E070E00E940C2879BD68BDE5
:1038B000DF91CF911F910F91FF90EF90BF90AF904C
:1038C0009F908F9008958CE09FB59062D2CF86B57F
:1038D00097B5E6B4F7B4E6B5F7B5C6E0D0E0BE01FB
:1038E0000E940C28060F171F211D311D4801590188
:1038F00085E0880C991CAA1CBB1C8A95D1F7C701CE
:10390000BE010E940C289F0150E040E0260F371FA7
:10391000411D511DC501B4010E94342849015A01BD
:10392000E6B5F7B5CA01B9010E94F0279B01AC01C9
:10393000DF010E947A289B01AC01C501B4010E94FD
:10394000F0272FE096958795779567952A95D1F77B
:1039500006B517B530E020E0061717072807390726
:1039600008F0A4CF66B577B5A1CF08958C9A949846
:1039700082E28FBD89E18EBD8FEF9FEF97BD86BD3F
:103980000E94281B08950E9463240895FC01EE0FF5
:10399000FF1FE80FF91FE454FD4F6183408322832A
:1039A0000895ECEBF2E0818360834283339692E0EA
:1039B000EC3EF907C1F7089524E630E040E350E01B
:1039C0006CEB72E080EB0E949D2408950E945E0ED5
:1039D000089580E00E945712817008950E94261376
:1039E0002FE389E191E0215080409040E1F700C051
:1039F00000000E9426130E94E91C882321F00E94E7
:103A0000E61C0E94032408950E94EE1C08958B3149
:103A100009F465C040F58B3071F078F4863009F414
:103A200047C020F4853059F180E00895873009F4CB
:103A300048C08830C9F781E00895803109F45DC03D
:103A400068F48E3089F79091F601892F8B7F92FF71
:103A500084608093F60182FD4CC0EDCF863159F32E
:103A6000893149F3E1CF8A3201F160F48732B1F054
:103A700020F48E31C8F28D514CC08932A9F60E94D3
:103A80000A05D9CF833440F48A3308F041C0853326
:103A900029F0883381F2C8CF833431F681E090E099
:103AA0000E9451090E940409C6CF0E94040FC3CF8F
:103AB0008091F601807F8093F60181E0809355022A
:103AC00008959091F601892F8E7F90FF81608093F9
:103AD000F60180FDB0CF817F8093F601ACCF90914D
:103AE000F601892F8D7F91FF82608093F60181FF1F
:103AF000A2CF8091F6018160EFCF9091F601892FDE
:103B0000877F93FF88608093F60183FDF2CF93CF88
:103B1000895321E030E0A90102C0440F551F8A9566
:103B2000E2F7CA01BDCF80E008950E94931D089579
:103B3000CF93C82F80915502882331F0813099F0BE
:103B40001092550280E00DC00E94800D8232D1F7A4
:103B50008C2F0E94931D811116C08C2F0E94071D6F
:103B60008170CF9108950E94800D823289F38C2F4D
:103B70000E94951D811105C0C43171F038F4CB301D
:103B800079F781E0EDCF81E090E0EACFC93221F012
:103B9000C833B9F380E0E4CF10925502FBCFCF9346
:103BA000DF93EB0186319C4711F50E94800D9D81CA
:103BB000992399F08A7A91E009F490E09093560263
:103BC000811109C089E20E9432230E94FB0D80E02E
:103BD000DF91CF91089585E3F6CF80915602811150
:103BE00004C089E20E943A23F0CF85E3FBCF81E055
:103BF000EFCFB0E0A0E0EFEFFDE10C948F28EC01F7
:103C0000E881F981CF01815A92454F9720F480EAEB
:103C1000E82782E5F827DB0115964C90442009F44B
:103C20005EC2EF3FF105A9F0A0F0E935FC4721F0B5
:103C300010925702A42D07C08091570291E0892766
:103C400080935702A0E08A2FCDB7DEB7E0E10C9455
:103C5000AB28A0915702AA2309F4E9C01092570299
:103C6000E03CF105F0F5E038F10508F0AAC0E034D9
:103C7000F10508F070C021E030E040E050E060E085
:103C800070E080E090E00E2F0E94C428B0915802AE
:103C90002B2BB09159023B2BB0915A024B2BB09178
:103CA0005B025B2BB0915C026B2BB0915D027B2BB6
:103CB000B0915E028B2BB0915F029B2B2093580238
:103CC0003093590240935A0250935B0260935C0216
:103CD00070935D0280935E0290935F02F983E883A4
:103CE000B2CFEF3FF10509F030F621E030E040E0DF
:103CF00050E060E070E080E090E08F01005C11092E
:103D00000E94C428B09170022B2BB09171023B2B02
:103D1000B09172024B2BB09173025B2BB091740285
:103D20006B2BB09175027B2BB09176028B2BB091EF
:103D300077029B2B209370023093710240937202A2
:103D400050937302609374027093750280937602AD
:103D500090937702C3CF21E030E040E050E060E094
:103D600070E080E090E08F01005411090E94C428A7
:103D7000B09160022B2BB09161023B2BB09162029B
:103D80004B2BB09163025B2BB09164026B2BB09113
:103D900065027B2BB09166028B2BB09167029B2B47
:103DA0002093600230936102409362025093630259
:103DB0006093640270936502809366029093670239
:103DC0008DCF21E030E040E050E060E070E080E046
:103DD00090E08F01005811090E94C428B091680238
:103DE0002B2BB09169023B2BB0916A024B2BB09107
:103DF0006B025B2BB0916C026B2BB0916D027B2B35
:103E0000B0916E028B2BB0916F029B2B20936802B6
:103E10003093690240936A0250936B0260936C0284
:103E200070936D0280936E0290936F0257CFE034CF
:103E3000F10508F06BC07090580280905902909084
:103E40005A02D0915B02C0915C02B0915D02509029
:103E50005E0260905F0221E030E040E050E060E010
:103E600070E080E090E00E2F0E94C42859016A01A2
:103E70007B018C01272D2A21382D3B21492D4C21F6
:103E80005D2F5D216C2F6E217B2F7F21852D80235F
:103E9000962D91230E94FA2809F0CCCEE03CF10542
:103EA00008F08EC0E038F10508F0EBC0E034F10511
:103EB00008F0B9C021E030E040E050E060E070E0A0
:103EC00080E090E00E2F0E94C42820953095409508
:103ED00050956095709580959095272138214921BE
:103EE0005D236C237B2385219621209358023093F8
:103EF000590240935A0250935B0260935C027093A4
:103F00005D0280935E0290935F029DCEE038F105E2
:103F1000E0F4709060028090610290906202D09113
:103F20006302C0916402B091650250906602609095
:103F3000670221E030E040E050E060E070E080E0C7
:103F400090E08F01005411098FCFE03CF105E0F4BF
:103F5000709068028090690290906A02D0916B0222
:103F6000C0916C02B0916D0250906E0260906F0231
:103F700021E030E040E050E060E070E080E090E080
:103F80008F010058110970CF7090700280907102FB
:103F900090907202D0917302C0917402B091750238
:103FA000509076026090770221E030E040E050E0EF
:103FB00060E070E080E090E08F01005C110954CF78
:103FC000EF3FF10511F008F075CF8F01005C11098A
:103FD00021E030E040E050E060E070E080E090E020
:103FE0000E94C42820953095409550956095709515
:103FF000809590952721382149215D236C237B23CF
:1040000085219621209370023093710240937202B1
:1040100050937302609374027093750280937602DA
:104020009093770210CE8F010054110921E030E007
:1040300040E050E060E070E080E090E00E94C42842
:104040002095309540955095609570958095909508
:104050002721382149215D236C237B23852196214B
:104060002093600230936102409362025093630296
:104070006093640270936502809366029093670276
:10408000E2CD8F010058110921E030E040E050E01E
:1040900060E070E080E090E00E94C42820953095B8
:1040A0004095509560957095809590952721382181
:1040B00049215D236C237B2385219621209368026F
:1040C0003093690240936A0250936B0260936C02D2
:1040D00070936D0280936E0290936F02B4CDA1E055
:1040E000EF3FF10509F0B8F5E034F105B0F5809047
:1040F000580290905902D0915A02C0915B02B0913F
:104100005C02A0915D0260905E0270905F0221E00F
:1041100030E040E050E060E070E080E090E00E2FA2
:104120000E94C42859016A017B018C01282D2A2193
:10413000392D3B214D2F4C215C2F5D216B2F6E21A2
:104140007A2F7F21A1E0862D8023972D91230E9435
:10415000FA2809F4A0E0A17076CDE038F105E0F48A
:104160008090600290906102D0916202C0916302DF
:10417000B0916402A091650260906602709067023F
:104180008F010054110921E030E040E050E060E090
:1041900070E080E090E0C4CFE03CF105A0F48090B6
:1041A000680290906902D0916A02C0916B02B0914E
:1041B0006C02A0916D0260906E0270906F028F0190
:1041C00000581109E0CF8090700290907102D09158
:1041D0007202C0917302B0917402A0917502609056
:1041E0007602709077028F01005C1109CCCFCF93DB
:1041F000DF93EC01FB018581882309F4D2C09E0185
:1042000030572332310508F0B2C00E94810E9093DE
:10421000920280939102FE01E150F047E232F105F3
:1042200020F4E25EF54D0C94562880919102816055
:104230008093910293C08091920288608093920251
:104240008DC0809191028260F3CF80919102846051
:10425000EFCF809191028860EBCF809192028160D4
:10426000EDCF809192028260E9CF809191028061CE
:10427000DFCF809191028062DBCF809191028064D8
:10428000D7CF0E940409809191028068D1CF80919C
:1042900091028C60CDCF809192028360CFCF8091CC
:1042A00091028E7FC5CF80919202877FC7CF809188
:1042B00091028D7FBDCF809191028B7FB9CF80918C
:1042C0009102877FB5CF809192028E7FB7CF809188
:1042D00092028D7FB3CF809191028F7EA9CF809182
:1042E00091028F7DA5CF809191028F7BA1CF0E94FB
:1042F0000409809191028F779BCF80919102837FF7
:1043000097CF809192028C7F99CF8091910282FB0E
:10431000992790F921E0922790FB82F990FB83F98D
:1043200087CF80919202982F909591708E7F892BE4
:1043300090FB81F983CF90919102892F8F7B96FF1B
:10434000806476CF0E94040990919102892F97FB97
:1043500087F980586DCF81E00E94070F809191020C
:10436000909192020E94860E0E94040980E0DF91E3
:10437000CF91089580E0F0CF90919102892F8F7EA8
:1043800094FF806155CF90919102892F8E7F90FF8D
:1043900081604ECF90919202892F877F93FF886032
:1043A0004DCF81E0E4CF0F931F93CF93DF93C42FC2
:1043B000D22FFC0185818823C9F040937A020E94A4
:1043C000C723909379028093780280E28C0F883023
:1043D00040F4C77081E001C0880FCA95EAF70E94D7
:1043E000B806DF91CF911F910F91089510917A0235
:1043F000141332C080917802909179020E94A42314
:10440000883C910548F5C0E2CD0F1D17B9F080E258
:10441000810F883040F4177081E001C0880F1A9531
:10442000EAF70E94BF06C83048F481E09D2F9770DC
:1044300001C0880F9A95EAF70E94B806802F0E9463
:10444000AF06C83070F6D77081E001C0880FDA95EA
:10445000EAF70E94BF06C5CF80E28C0F883008F6CD
:10446000C77081E001C0880FCA95EAF7F2CF0F93B9
:10447000DB0188519C4787309105A0F5FC01E05C89
:10448000F54D0C94562806E221EE41EE6AE17CE7F8
:10449000CD010E94D32180E00F91089507E225EE1F
:1044A00045EE6BE17CE7F4CF06E221EE40EE68E1F9
:1044B0007CE7EECF07E225EE44EE69E17CE7E8CF4A
:1044C00006E221EE42EE6CE17CE7E2CF07E225EE68
:1044D00046EE6DE17CE7DCCF08E221E045EE6EE1DF
:1044E0007CE7D6CF15968C91882319F010927A022A
:1044F000D3CF81E0D1CF9093800280937F02089543
:10450000E0917F02F0918002309729F00190F081D4
:10451000E02D0995089580E00895E0917F02F091E3
:104520008002309721F00280F381E02D09950895F3
:10453000A3E0B0E0EEE9F2E20C949D2820917D0228
:1045400030917E0228173907A1F090937E02809364
:104550007D02E0917F02F0918002309751F023E0DC
:1045600029839B838A830084F185E02DCE01019607
:1045700009952396E2E00C94B928A3E0B0E0E3ECBF
:10458000F2E20C949D2820917B0230917C02281746
:104590003907A1F090937C0280937B02E0917F0227
:1045A000F0918002309751F024E029839B838A8325
:1045B0000084F185E02DCE01019609952396E2E075
:1045C0000C94B92840916400509165009A012E5FC7
:1045D0003F4F485F5F4F80E02417350709F4089587
:1045E000F90191919F019923B9F38F5FF5CF88234A
:1045F00071F02091640030916500F9013296285FD6
:104600003F4F9191981729F0E217F307D1F780E017
:10461000089581E008959C01FC0132969FEF80E0AF
:104620004191461751F09F3F19F4411101C0982F55
:104630008F5F8630A9F79F3F09F40895290F311D38
:1046400097FD3A95F90162830895FC013296089628
:104650002191261303C0DF0111971C92E817F90777
:10466000B9F70895682F80916400909165000E94C9
:104670000B230895682F80916400909165000E943B
:1046800025230895E0916400F0916500329686E05C
:10469000DF011D928A95E9F7089508950E944D2340
:1046A000089591E0811101C090E090937B006091AA
:1046B000790070917A0080917B0090917C000E943B
:1046C0004E23089580917B00089580937A00609135
:1046D000790070917A0080917B0090917C000E941B
:1046E0004E23089580917A00089580937900609117
:1046F000790070917A0080917B0090917C000E94FB
:104700004E230895809179000895089508950E9498
:1047100086230895089508950E9485230895CF93D0
:104720000E948A230E9426130E948B23C0E08C2FB4
:104730000E945712892B31F4CF5FC830C1F780E057
:10474000CF91089581E0FCCFCF93DF93EC010E94DD
:10475000C7238C1B9D0BDF91CF91089584B7806890
:1047600084BF84B7806884BF0895809183028111DB
:104770000E949D0508950E9404090E94A7050895BE
:104780008BE083BF8BEB8CBF82E089BF08952FB78E
:10479000F8948091EC029091ED02A091EE02B0911C
:1047A000EF022FBF08952FB7F8946091EC0270913B
:1047B000ED028091EE029091EF022FBF0895789460
:1047C0001F921FB61F9211248F939F93AF93BF9395
:1047D0008091EC029091ED02A091EE02B091EF0277
:1047E0000196A11DB11D8093EC029093ED02A09360
:1047F000EE02B093EF02BF91AF919F918F911F9006
:104800001FBE1F90189560E081E090E00E94C929CA
:1048100088E19CE00FB6F894A89581BD0FBE91BDCC
:10482000FFCF88E19CE00FB6F894A89581BD0FBE3C
:1048300091BDFFCFEF92FF920F931F93CF93DF9322
:10484000182FEB0116BE84EA86BF0E94C7237C01A5
:1048500006B607FE21C081B1887F883021F081B182
:10486000887F803169F513B984E886BF0E94C72329
:104870008C0106B607FE1DC021B1287F90E080E0C4
:10488000283191F081E090E0203411F490E080E054
:1048900091958195910908C0C7010E94A423C8176A
:1048A000D907B0F68EEF9FEFCDB7DEB7E6E00C94F8
:1048B000B528C8010E94A423C817D907D0F6F2CFA3
:1048C0008FEF9FEFF1CF11B887E080B985B3836098
:1048D00085BB86B7846086BF86B7816086BF86B792
:1048E000806486BF08950F931F93CF93DF93EB01EE
:1048F00083B984E886BF0E94C7238C0106B607FEF1
:1049000010C021B1287F81E090E0283211F490E0BE
:1049100080E0919581959109DF91CF911F910F9141
:104920000895CF3FDC0751F3C8010E94A423C817A4
:10493000D90720F78EEF9FEFEFCFB0E0A0E0E3EADA
:10494000F4E20C949228782E5B016A0189010E949E
:10495000C7234C01C1E0D0E00431110558F0C5E097
:10496000D0E00F3F100731F0C80164E170E00E9411
:104970000C28EB01BE01872D0E941A247C0197FFB1
:1049800009C00F3F1007B1F3C4010E94A423081708
:10499000190780F7E501CA0CDB1CCC15DD0511F009
:1049A000F7FE08C084E986BFC701CDB7DEB7EDE0EA
:1049B0000C94AE28B80189910E9473247C01EDCF3C
:1049C00080911703882369F0109217030E94C72370
:1049D00090938202809381021092830280918302DD
:1049E0000895809183028111F9CF80918102909185
:1049F00082020E94A423069788F381E080938302B9
:104A0000EDCF0E94C7239093820280938102089584
:104A10000E94D5278B9A80E0815019F48B98789466
:104A20000895A895E7EBFBE03197F1F700C000008F
:104A3000F3CF0E94D9250E947B222FEB84ED91E0D9
:104A4000215080409040E1F700C000000895CF93CE
:104A50000E94E024CCE0811120C0CF9108950E94F3
:104A6000B5230E948F238823C1F0F89491B3939AC1
:104A7000892F8C6081BB82B38C2782BB2FE53AEEF5
:104A800080E0215030408040E1F700C0000082B358
:104A90008C2782BB91BB939878940E94E02481116B
:104AA000DECF0E94BB23D9CF0E94E52680911D0353
:104AB000882329F08091FB0284FD0E94A20F0895B3
:104AC0000895FF920F931F93CF93DF93D82F8B01FD
:104AD000F42EC5E0D13039F0D33071F0CDB7DEB768
:104AE000E5E00C94B6288091FB0284FF0EC06F2D88
:104AF000C8010E94DB26F2CF8091340384FF05C0F9
:104B00006F2DC8010E94E026E9CF0E94E52687E9C3
:104B10009AE30197F1F700C00000C150D9F6DECF4B
:104B2000B0E0A0E0E6E9F5E20C949728E82E8B01CE
:104B3000EA016A0183E0D694C7948A95E1F7F12CE3
:104B4000FC141D0468F0C77031F04C2F50E0B80120
:104B50008E2D0E946125CDB7DEB7E8E00C94B32816
:104B600048E050E0B8018E2D0E946125085F1F4F7C
:104B7000F394E6CF43E050E0BC0183E00E9490252F
:104B80000895CF93DF93EC010E94622348E050E048
:104B9000BE0181E00E94902588E0FE01A9E8B2E014
:104BA00001900D928A95E1F7DF91CF9108950895D4
:104BB00008958DE790E00895FC0180818076803231
:104BC00041F481818330C9F130F48130F1F08230D9
:104BD00041F180E008958A30B9F18B30C9F1893014
:104BE000C1F7828193818115924069F48481958116
:104BF000892B49F481E08093880286819781909384
:104C00008702809386028FEF089584819581892B96
:104C100001F789E892E0909319038093180388E0E4
:104C200008950E9482238093850285E892E0909304
:104C300019038093180381E008950E9462238093F2
:104C4000840284E892E0F3CF83810E947523C1CF70
:104C500084819581892B09F0BCCF82810E945123E8
:104C6000B8CFCF932091860230918702232B79F021
:104C7000C0918802C13059F4FC0180810E946523F3
:104C800010928702109286028C2FCF910895CFEF59
:104C9000FBCF0895FC019381933059F130F49130AA
:104CA000C1F09230F1F080E00895913209F440C0F3
:104CB0009232C9F784819581009709F44BC001971E
:104CC00091F787EC94E0909319038093180382E3A3
:104CD000089589E894E0909319038093180382E182
:104CE00008958EE494E090931903809318038BE366
:104CF000089582818130A1F0882351F0823099F6A5
:104D00008BE994E090931903809318038AE1089546
:104D100083EC94E0909319038093180384E0089542
:104D200087EB94E090931903809318038AE0089529
:104D300084819581009731F0019709F0B4CF89E71C
:104D400094E002C080E694E09093190380931803E6
:104D500089E0089589EF94E09093190380931803F4
:104D600084E408951F93CF93DF93E82F792F162FB4
:104D7000EA01888184FF1CC0298188E828272983CB
:104D8000CE010296DC012E2F372F512F5E0FF90135
:104D900021912D939F01452F4E1B1416C4F3612FB3
:104DA0000E94D3021C5F1883DF91CF911F91089559
:104DB0008AE58883E5CF4BEF52E00E94B226089542
:104DC00044E353E00E94B2260895CF93DF936091AD
:104DD0001A03635067FD12C080911603CCE0D0E047
:104DE000C81BD109C25EDC4F80911503803108F0E9
:104DF00054C0CE010E94492610921A038091880067
:104E000084FF3EC0809187008F3FD1F1C82F893049
:104E100008F0C8E0982F9C1B909387009091F002B7
:104E200028E892279093F0028823E9F080911803F4
:104E3000909119032091140326FFAEC0FC012C2F82
:104E4000A1EFB2E034913D9331962150D9F79C0106
:104E50002F5F3F4F8FEF8C0F820F932F911D9093F9
:104E60001903809318036C2F81EF92E00E94D30204
:104E7000CC5FCC3019F08FEF80938700C09388000F
:104E800084E190B39C7031F48150D9F710921B03E8
:104E900010921303DF91CF9108958D3209F069C00C
:104EA000683009F0A9CF83EC8093F0028AE5809303
:104EB0008800109214038881807671F0CE010E94E0
:104EC000DC258F3FC1F4988197FD8E8190E8909307
:104ED00014038093870090CF2A811092F902998160
:104EE000911111C01092FA0229EF32E082E0309362
:104EF0001903209318039F819111EBCF9E8198177E
:104F000040F7892FE6CF953029F420931B0329EF32
:104F100032E0EDCF963099F49B81913021F4CE01AF
:104F20000E944A2608C09230D1F39330C1F39132E7
:104F3000B1F39232A1F390E490931403C2CF98306E
:104F400089F0993019F420931D03E1CF9A3071F064
:104F50009B30E9F69BE49093FC0290933503909389
:104F60000803D5CF2DE133E081E0C1CF29EF32E056
:104F7000FBCF8091140387FF3FCFCE010E943126E3
:104F80008F3F21F48EE18093880036CF882309F487
:104F900033CF1092870030CFDC012C2FE1EFF2E00D
:104FA0003D9131932150E1F752CFCF93DF9385B7F5
:104FB000886085BF8BB780688BBFCBEFD2E08BE476
:104FC0008983A4E3B3E011968C931197E7E0F3E0B3
:104FD00081838AE588838C938083DF91CF910895C4
:104FE000DB018F939F930E947A28BF91AF91A29F7C
:104FF000800D911DA39F900DB29F900D11240895D7
:10500000991B79E004C0991F961708F0961B881F1A
:105010007A95C9F780950895AA1BBB1B51E107C07B
:10502000AA1FBB1FA617B70710F0A61BB70B881F38
:10503000991F5A95A9F780959095BC01CD010895C7
:1050400097FB072E16F4009407D077FD09D00E9435
:105050000C2807FC05D03EF4909581959F4F08954C
:10506000709561957F4F0895A1E21A2EAA1BBB1B74
:10507000FD010DC0AA1FBB1FEE1FFF1FA217B30724
:10508000E407F50720F0A21BB30BE40BF50B661F3A
:10509000771F881F991F1A9469F7609570958095FE
:1050A00090959B01AC01BD01CF010895EE0FFF1F4C
:1050B0000590F491E02D09940E946428332312F4A2
:1050C0008A1B9B0B0C947528A29FB001B39FC00153
:1050D000A39F700D811D1124911DB29F700D811D24
:1050E0001124911D08950E946428B7FF0895821B22
:1050F000930B08950E946428A59F900DB49F900D76
:10510000A49F800D911D11240895B7FF0C947A2857
:105110000E947A28821B930B08952F923F924F9200
:105120005F926F927F928F929F92AF92BF92CF9237
:10513000DF92EF92FF920F931F93CF93DF93CDB740
:10514000DEB7CA1BDB0B0FB6F894DEBF0FBECDBFB8
:1051500009942A88398848885F846E847D848C8489
:105160009B84AA84B984C884DF80EE80FD800C8192
:105170001B81AA81B981CE0FD11D0FB6F894DEBF75
:105180000FBECDBFED010895002E083090F0982F8E
:10519000872F762F652F542F432F322F2227085029
:1051A000F4CF220F331F441F551F661F771F881F20
:1051B000991F0A95B2F7002D089597FD1094002EBF
:1051C000083098F00850232F342F452F562F672F83
:1051D000782F892F912DF4CF1594979587957795F2
:1051E000679557954795379527950A95AAF71124FE
:1051F000002D08952A153B054C055D056E057F05BC
:105200008007910708958F929F92AF92BF92CF929D
:10521000DF92EF92FF92CF93DF93EC016881798167
:105220008A819B81611571058105910521F464E2F4
:1052300079ED8BE597E02DE133EF41E050E00E94FE
:10524000E62949015A019B01AC01A7EAB1E40E9499
:105250007A286B017C01ACEEB4EFA50194010E94A9
:105260008828DC01CB018C0D9D1DAE1DBF1DB7FF35
:1052700003C00197A109B04888839983AA83BB839F
:105280009F77DF91CF91FF90EF90DF90CF90BF900D
:10529000AF909F908F9008950E940329089580E613
:1052A00090E00E9403290895B0E0A0E080936000A0
:1052B00090936100A0936200B09363000895FC0195
:1052C0004150504030F001900616D1F73197CF0190
:1052D0000895882799270895FB01DC0104C08D916A
:1052E0000190801921F441505040C8F7881B990B58
:1052F0000895FB01DC0102C001900D924150504025
:10530000D8F70895E199FECF9FBB8EBBE09A99270D
:105310008DB30895A6E1B0E044E050E00C94D829A4
:10532000A8E1B0E042E050E00C94D829DC01A40FE1
:10533000B51F4150504048F0CB01840F951F2E916E
:105340000E94A72941505040D0F70895262FE19997
:10535000FECF9FBB8EBBE09A01970DB2021631F0D3
:105360002DBB0FB6F894E29AE19A0FBE089503960A
:10537000272F0E94A7290E94A629252F0E94A7292E
:10538000242F0C94A7290196272F0E94A7290C945B
:10539000A629262FE199FECF9FBB8EBB2DBB0FB652
:1053A000F894E29AE19A0FBE01960895DC01CB01D0
:1053B000FC01E199FECF06C0FFBBEEBBE09A31963F
:1053C0000DB20D9241505040B8F70895052E97FB4D
:1053D0001EF400940E94FD2957FD07D00E94342836
:1053E00007FC03D04EF40C94FD2950954095309560
:1053F00021953F4F4F4F5F4F089590958095709541
:1054000061957F4F8F4F9F4F0895F894FFCF070707
:10541000070745074507A907360736073607C507B3
:10542000360845084508CD13D513DA13DF13E41306
:10543000E913EE13F313F813FD1302144F21C321E4
:105440005721212125215B2129215F216B21352134
:10545000BC2139216F213D2173219B2141217721DD
:10546000A22147217D2185212D2163213121672121
:105470004B2181219121AB21BA211B215321CA212A
:0E54800054225A2243224E22602266226C22BF
:10548E0001000000D20101010200100010100119EC
:10549E001A1B1C1D1E1F202122000001007223C199
:1054AE0025D825D725BA25FF5AE200E900EA00B52E
:1054BE0000B600B700CD008301CC008A01920194A2
:1054CE00012102230224022502260227022A02B308
:1054DE0000B4006F0070009F01CB019F02A00281FB
:1054EE008283E200E900EA00B500B600B700CD0005
:1054FE008301CC008A01920194012102230224022D
:10550E002502260227022A02B300B4006F007000A3
:10551E009F01CB019F02A00281828390919293946E
:10552E00959697373635343332076061626364651A
:10553E006667000102020202060606090909090948
:10554E00090F0F0F0F0F0F15151518191919191916
:10555E0019191919192324252525252525C31CC6F6
:06556E001CD11CDC1C0036
:00000001FF
